:1000000002153A02000A53EFFE323202001A53EF91
:10001000FD323202001253EFFB323202002253EF64
:10002000FE323202191BD290D291D292D29375A095
:0900300001D2A77587020000222D
:07003B000217C953EFFD326B
:0E004300021A829001D6E585F02253EFFB32BF
:06005300020006C2AF220C
:06005B0002000ED2AF22EC
:1000630002001E758F1075AAFF75AB870000D2AF13
:040073007587022269
:0300830002001662
:03008B00021AA4B2
:030093000218CB85
:03009B0002003E22
:1000A30002004D020467E86480F8E933E833601125
:1000B3000460F0ED33EC337009E8FCE9FDEAFEEB94
:1000C300FF220460DED3EB9FEA9EE99DE8C2E78C42
:1000D300F0C2F795F0400CE8CCF8E9CDF9EACEFA96
:1000E300EBCFFB12043285D0F05804700320D5B354
:1000F300E80470075002B2D502047192D5EC046093
:10010300F7E4CCC0E0C398F8603B94186008400D56
:10011300D0E0FB020449E4FBFAC9FC8028E830E4A0
:1001230006E4C9FBE4CAFCE830E305E4C9CACBFC36
:10013300E854076010F8C3E913F9EA13FAEB13FB69
:10014300EC13FCD8F130F52FC3E49CFCEF9BFFEEDE
:100153009AFEED99FDD0E0FBEF4E4D4C701222DB81
:100163000302046EEC2CFCEF33FFEE33FEED33FDA4
:10017300ED30E7EB020449EF2BFFEE3AFEED39FDDC
:10018300D0E0FB50130BBB0003020471ED13FDEE33
:1001930013FEEF13FFEC13FC020449EC4D6011E86E
:1001A300497017ED33EC3304600DE4FCFFFEFD22D0
:1001B300E933E8330470F802046712043258046028
:1001C30009E4CC2481500628500902047128400315
:1001D30002046EC0E0EB4A7044B98006D0E0FB0233
:1001E300045DEF4E701CBD8008EBFFEAFEE9FD8065
:1001F300EBE98DF0A4FEE5F0020287E9CDF9EAFE12
:10020300EBFFEF89F0A4FCE5F0CE89F0A42EFFE428
:1002130035F0CD89F0A42DFEE435F08067EF4E7004
:1002230005BD80D780C3EF8BF0A4ACF0EE8BF0A4B8
:100233002CFCE435F0F8EF8AF0A42CE5F038FCE46C
:1002430033CB8DF0A42CFCE5F03BF8EE8AF0A42C24
:10025300FCE5F038F8E433CF89F0A42CFCE5F03862
:10026300CF3400CE89F0A42FFFE5F03EFEE433C97E
:100273008DF0A42EFEE5F039CD8AF0A42FFFE5F032
:100283003EFEE43DFD33D0E0FB50070BBB000F0205
:100293000471EC2CFCEF33FFEE33FEED33FD02046F
:1002A30049020471EC5D046005E85904700302041B
:1002B30067120432580460F6EC4860F2EC7004FDF7
:1002C300FEFF22C860DB2481C85009C39860025036
:1002D3000602046E9850CAF582E9294B4A7005ABB1
:1002E3008202045D75F0007C1A7880C3EF9BEE9A5E
:1002F300ED99400DC3EF9BFFEE9AFEED99FDE842A9
:10030300F0DC23ACF0D0E0FFD0E0FED0E0FDAB8228
:1003130020E7101BEB60BAEC2CFCEF33FFEE33FE4F
:10032300ED33FD020449E803F830E705C0F075F04A
:1003330000EF2FFFEE33FEED33FD40B830E7C28010
:10034300AA74F8CC6480CCC86480C8F58204604F7A
:10035300C3EB9FF5F0EA9E42F0E99D42F0E89C452D
:10036300F0603C501DE5825FFFE582D313CB5BCB8E
:10037300F42B5582FB50280ABA002409B90020083F
:10038300801DE5825BFBE582D313CF5FCFF4C313FC
:100393002F5582FF50090EBE00050DBD00010CC391
:1003A300EB9FF5F0EA9E42F0E99D42F0E89C45F0B0
:1003B3006007CC4820E701B3EC2275F020800E756E
:1003C300F010800575F0087D007E007F003392D524
:1003D30030D50312082CEC334010EF33FFEE33FE1D
:1003E300ED33FDEC33FCD5F0ED22E5F0247EA2D510
:1003F30013CC92E7CDCEFF22EDD2E7CD33EC33928F
:10040300D524814006E4FFFEFDFC22FCE4CFCECDE3
:10041300CC24E0501174FF80EDC3CC13CCCD13CDAD
:10042300CE13CECF13CF0470F030D5DE02082CE903
:10043300D2E7C933E833F892D5EDD2E7CD33EC33C5
:10044300FC5002B2D522EC30E7100FBF000C0EBEF9
:1004530000080DBD00040BEB6014A2D5EB13FCEDFB
:1004630092E7FD2274FFFCFDFEFF22E480F8A2D593
:1004730074FF13FC7D80E480EFE709F608DFFA8060
:1004830046E709F208DFFA803E88828C83E709F0A9
:10049300A3DFFA8032E309F608DFFA8078E309F292
:1004A30008DFFA807088828C83E309F0A3DFFA8087
:1004B3006489828A83E0A3F608DFFA805889828AF6
:1004C30083E0A3F208DFFA804C80D280FA80C680F2
:1004D300D4806980F28033801080A680EA809A807D
:1004E300A880DA80E280CA803389828A83ECFAE4C6
:1004F30093A3C8C582C8CCC583CCF0A3C8C582C8A2
:10050300CCC583CCDFE9DEE7800D89828A83E4935F
:10051300A3F608DFF9ECFAA9F0EDFB2289828A83BE
:10052300ECFAE0A3C8C582C8CCC583CCF0A3C8C588
:1005330082C8CCC583CCDFEADEE880DB89828A838C
:10054300E493A3F208DFF980CC88F0EF60010E4E4C
:1005530060C388F0ED2402B4040050B9F582EB24A3
:1005630002B4040050AF23234582239004CC73C20A
:10057300D530F707B2D563F0FF05F030E70CB2D5FD
:10058300F4048463F0FF05F080018430D502F404A1
:1005930022BB010689828A83E0225002E722BBFE46
:1005A30002E32289828A83E49322BB010CE5822938
:1005B300F582E5833AF583E0225006E92582F8E6E1
:1005C30022BBFE06E92582F8E222E58229F582E5CF
:1005D300833AF583E49322BB010689828A83F0225E
:1005E3005002F722BBFE01F322F8BB010DE582297D
:1005F300F582E5833AF583E8F0225006E92582C8BF
:10060300F622BBFE05E92582C8F222EF8DF0A4A8ED
:10061300F0CF8CF0A428CE8DF0A42EFE22BC000BCC
:10062300BE0029EF8DF084FFADF022E4CCF875F025
:1006330008EF2FFFEE33FEEC33FCEE9DEC98400504
:10064300FCEE9DFE0FD5F0E9E4CEFD22EDF8F5F0CA
:10065300EE8420D21CFEADF075F008EF2FFFED33D2
:10066300FD4007985006D5F0F222C398FD0FD5F050
:10067300EA22C2D5EC30E709B2D5E4C39DFDE49C80
:10068300FCEE30E715B2D5E4C39FFFE49EFE1206ED
:1006930020C3E49DFDE49CFC800312062030D507B3
:1006A300C3E49FFFE49EFE22C5F0F8A3E028F0C553
:1006B300F0F8E582158270021583E038F022A3F882
:1006C300E0C5F025F0F0E582158270021583E0C8DD
:1006D30038F0E822BB0110E58229F582E5833AF57B
:1006E30083E0F5F0A3E0225009E92582F886F008BB
:1006F300E622BBFE0AE92582F8E2F5F008E222E5EC
:10070300832AF583E993F5F0A3E99322E88FF0A414
:10071300CC8BF0A42CFCE98EF0A42CFC8AF0EDA485
:100723002CFCEA8EF0A4CDA8F08BF0A42DCC3825B8
:10073300F0FDE98FF0A42CCD35F0FCEB8EF0A4FE98
:10074300A9F0EB8FF0A4CFC5F02ECD39FEE43CFC2D
:10075300EAA42DCE35F0FDE43CFC2275F008758249
:1007630000EF2FFFEE33FECD33CDCC33CCC5823338
:10077300C5829BED9AEC99E58298400CF582EE9B3D
:10078300FEED9AFDEC99FC0FD5F0D6E4CEFBE4CD5B
:10079300FAE4CCF9A88222B800C1B90059BA002DF5
:1007A300EC8BF084CFCECDFCE5F0CBF97818EF2FAE
:1007B300FFEE33FEED33FDEC33FCEB33FB10D703DD
:1007C300994004EB99FB0FD8E5E4F9FA227818EF86
:1007D3002FFFEE33FEED33FDEC33FCC933C910D7E5
:1007E300059BE99A4007EC9BFCE99AF90FD8E0E4F2
:1007F300C9FAE4CCFB2275F010EF2FFFEE33FEEDC8
:1008030033FDCC33CCC833C810D7079BEC9AE89997
:10081300400AED9BFDEC9AFCE899F80FD5F0DAE479
:10082300CDFBE4CCFAE4C8F922C3E49FFFE49EFEC7
:10083300E49DFDE49CFC22EB9FF5F0EA9E42F0E987
:100843009D42F0EC6480C864809845F022EB9FF5EC
:10085300F0EA9E42F0E99D42F0E89C45F022E86010
:100863000FECC313FCED13FDEE13FEEF13FFD8F1F2
:1008730022BB010789828A830209345005E9F80201
:100883000928BBFE05E9F802094089828A83020927
:100893004CECF0A3EDF0A3EEF0A3EFF022A88285D9
:1008A30083F0D083D0821208B71208B71208B712A8
:1008B30008B7E473E493A3C583C5F0C583C8C582B1
:1008C300C8F0A3C583C5F0C583C8C582C822F5F0A7
:1008D300C582A4C582C5F0C583A42583F58322BB45
:1008E300010789828A830209655005E9F802095CD8
:1008F300BBFE05E9F802096E89828A83020977D073
:1009030083D082F8E4937012740193700DA3A393C0
:10091300F8740193F5828883E4737402936860EF3B
:10092300A3A3A380DFE6FC08E6FD08E6FE08E6FFD6
:1009330022E0FCA3E0FDA3E0FEA3E0FF22E2FC082B
:10094300E2FD08E2FE08E2FF22E493FC740193FD5A
:10095300740293FE740393FF22E6FB08E6FA08E6AB
:10096300F922E0FBA3E0FAA3E0F922E2FB08E2FAB2
:1009730008E2F922E493FB740193FA740293F922D7
:1009830090020BE07002A3E06003020A9912149F25
:10099300900205E0FEA3E0FF4E703C90020EE004DF
:1009A300F0700690020DE004F090020DE0FCA3E06D
:1009B300FDC394F4EC648094815004C2A7801AD3DD
:1009C300ED94E8EC648094834009E490020DF0A375
:1009D300F08006D2A78002D2A790020AE004F0704A
:1009E30006900209E004F0900209E07004A3E064B9
:1009F300057007900209F0A304F0EE7037EF14605E
:100A03000C1460122402702C900226800C90022990
:100A1300E0FF7E008013900224E075F064A4FFA33E
:100A2300E07C002FFFEC35F0FE900209E0FCA3E030
:100A3300FD121317121710EF24FE601314603424F1
:100A4300026003020D2290020BE4F0A304F0229053
:100A53000206E004F07006900205E004F09002053F
:100A6300E07004A3E064036003020D22900205F02A
:100A7300A3F022900206E024FFF0900205E034FF89
:100A8300F0E0F47003A3E0F46003020D229002058A
:100A9300F0A37402F02290020BE07004A3E064015F
:100AA3006003020D2290020AE004F070069002092E
:100AB300E004F0900209E07004A3E064057007907D
:100AC3000209F0A304F0900205E0FEA3E0FFEE703C
:100AD30037EF14600C1460122402702C90022680ED
:100AE3000C900229E0FF7E008013900224E075F051
:100AF30064A4FFA3E07C002FFFEC35F0FE90020915
:100B0300E0FCA3E0FD121317900203E0FEA3E0FF55
:100B13004E7033900208E004F07006900207E00480
:100B2300F0900207E0FCA3E0FDC394F4EC6480942E
:100B3300815006D290D291804BD3ED94E8EC64803F
:100B4300948340408037EF64014E7038900208E090
:100B530004F07006900207E004F0900207E0FEA3A1
:100B6300E0FFC394F4EE648094815006D292D29352
:100B73008012D3EF94E8EE648094834007E49002FC
:100B830007F0A3F0121710EF24FE604E1470030257
:100B93000C8724026003020D22900204E004F0702B
:100BA30006900203E004F0900203E0FEA3E0FF647A
:100BB300024E6016EF64014E6003020D22A3E07043
:100BC30004A3E064016003020D22E490020BF0A38E
:100BD300F0900203F0A3F002121F900203E0FEA3C1
:100BE300E0FF4E7045A3E0FCA3E0FDEC6003020DC3
:100BF30022ED14601C14602B24026003020D22906A
:100C03000227E004F0E0D3943C5003020D22E4F009
:100C130022900229E004F0E0D394075003020D224E
:100C2300E4F022900225E004F022EF64014E600319
:100C3300020D22900205E0FEA3E0FFEE6003020D29
:100C430022EF14601C14602B24026003020D229017
:100C53000226E004F0E0D394185003020D22E4F0DE
:100C630022900229E004F0E0D394075003020D22FE
:100C7300E4F022900224E004F0E0D3940C50030249
:100C83000D22804C900203E0FEA3E0FF4E7045A3CB
:100C9300E0FCA3E0FDEC6003020D22ED14601714E9
:100CA300602224027079900227E014F0E0C39400DC
:100CB300506D743CF022900229E014F0E0C39401DB
:100CC300505D8048900225E014F0E0C39401504F3A
:100CD3007401F022EF64014E7045900205E0FEA31B
:100CE300E0FFEE703AEF1460171460242402702FB3
:100CF300900226E014F0E0C3940050237418F0220D
:100D0300900229E014F0E0C3940150137407F02219
:100D1300900224E014F0E0C394015003740CF02219
:100D230043BA80E59D603178FAE6FBAF9FC3EF9B42
:100D3300FFE49400FEE49400FDE49400FC7BE07A7D
:100D4300287901780012070FE42FFFEE3451FEEDEE
:100D53003425FDEC3402802E78FBE6FBAF9FC3EF16
:100D63009BFFE49400FEE49400FDE49400FCE47B28
:100D7300807ABBF9F812070FE42FFFEE3436FEED4D
:100D8300346EFDEC3401FC9001CE1208949001CE38
:100D9300E0FCA3E0FDA3E0FEA3E0FFC00790FE019B
:100DA300E0FBE4FAF9F8D00712079A9001CE120893
:100DB300947FC07EF67D577C009001CEE0F8A3E0DF
:100DC300F9A3E0FAA3E0FBC312085050097F007EA9
:100DD300607D547C00227FC07E267D827C00900152
:100DE300CEE0F8A3E0F9A3E0FAA3E0FBC3120850B6
:100DF30050097F807E8D7D5B7C00227F807EED7D30
:100E0300AF7C009001CEE0F8A3E0F9A3E0FAA3E001
:100E1300FBC312085050097F007EC07DA87C0022CE
:100E23007F807E2D7DE87C009001CEE0F8A3E0F981
:100E3300A3E0FAA3E0FBC312085050097F007E1B16
:100E43007DB77C00227F807E367D257C019001CE9C
:100E5300E0F8A3E0F9A3E0FAA3E0FBC312085050C3
:100E6300097F007E407D197C01227F807E567D4173
:100E73007C019001CEE0F8A3E0F9A3E0FAA3E0FB44
:100E8300C312085050097F007E2D7D317C01227FE3
:100E9300007EDB7D5F7C019001CEE0F8A3E0F9A347
:100EA300E0FAA3E0FBC312085050097F007E807D67
:100EB300517C01227F607E197D857C019001CEE00B
:100EC300F8A3E0F9A3E0FAA3E0FBC312085050092A
:100ED3007F007E367D6E7C01227F207EE07DB27CAA
:100EE300019001CEE0F8A3E0F9A3E0FAA3E0FBC38D
:100EF30012085050097FC07EFC7D9B7C01227FE05D
:100F03007EA67DE07C019001CEE0F8A3E0F9A3E0AA
:100F1300FAA3E0FBC312085050097F807EC37DC94A
:100F23007C01227F607E2B7DFF7C019001CEE0F867
:100F3300A3E0F9A3E0FAA3E0FBC312085050097F32
:100F4300007E407DFA7C01227FC07E0E7D167C02EE
:100F5300229001CEEFF0A3EDF0A3EBF0A3E0F8A312
:100F6300E0F9A3E0FAA3E0FB90023BE0FCA3E0FD81
:100F7300A3E0FEA3E0FF12079AE47B04FAF9F81258
:100F8300079AC3E49FFFE49EAD07FC9001CEE014F3
:100F9300700302102014700302105B14700302101C
:100FA300A8240360030210FA9001D5E0FB640170EA
:100FB300144398508D8BECF58D438E40D28EE49084
:100FC30001CAF0800FEBB4020B4398508DD7ECF5B8
:100FD300D6438E1553A23F9001CFE0FF7007A3E0E5
:100FE300B401028030EFB4020C9001D0E0B40305E9
:100FF30043A24080209001CFE0B4040AA3E0B405EB
:101003000543A280800F9001CFE0B40608A3E0B4AB
:10101300070343A2C0E49001CAF0D2AC229001D5E9
:10102300E0B4020B439A108DD7ECF5D6438E1453DC
:10103300BAFE9001CFE0FFB40807A3E0B409028031
:101043000EEFB40A0A9001D0E0B40B0343BA014394
:10105300AF01E49001CBF0229001D5E0FBB4020D87
:1010630043AC108DD7ECF5D6438E14800FEBB4034D
:101073000B43AC508DD5ECF5D443D10A53BAFD9054
:1010830001CFE0FFB40C07A3E0B40D02800EEFB470
:101093000E0A9001D0E0B40F0343BA0243AF08E451
:1010A3009001CCF0229001D5E0FBB4020D438410F3
:1010B3008DD7ECF5D6438E14800FEBB4040B438429
:1010C300508DD3ECF5D243D1A053BAFB9001CFE0BE
:1010D300FFB41007A3E0B411028014EFB412109010
:1010E30001D0E0B41309E4F5CA75C90443BA044353
:1010F300AF10E49001CDF0229001CEEFF0C2DEAF4D
:10110300F9EFFFABE9EBA3CFF0A3EFF09001CEE053
:10111300600302119C1203C2A804A905AA06AB0727
:10112300E4FFFE7D7A7C441202A7E4FBFA7940785F
:101133004112019EC004C005C006C00790023BE0F7
:10114300FCA3E0FDA3E0FEA3E0FFE41203BDD00394
:10115300D002D001D0001202A71203FBAC06AD07E8
:101163009001DFECF0A3EDF075DA49E5E904F5EA67
:1011730085F9FA9001DFE0FEA3E0FF9001E6E02F9E
:10118300FF9001E5E03EFE9001D0E02FFF9001CFFC
:10119300E03E9001E5F0A3EFF09001CEE064017032
:1011A300781203C2A804A905AA06AB07E4FFFE7DD3
:1011B3007A7C441202A7E4FBFA7940784112019E3B
:1011C300C004C005C006C00790023BE0FCA3E0FDDD
:1011D300A3E0FEA3E0FFE41203BDD003D002D001DD
:1011E300D0001202A71203FB9001E1EEF0A3EFF08F
:1011F30075DB49E5E904F5EA85F9FA9001E8E02FA2
:10120300FF9001E7E03EFE9001D0E02FFF9001CF79
:10121300E03E9001E7F0A3EFF0D2DE22E4FDFC7F95
:101223008E1216B1900223E0FD75F00A8475F0105A
:10123300A4FFAEF0ED75F00A84EF7F8C1216AB902D
:101243000224E0FD75F00A8475F010A4FFAEF0ED02
:1012530075F00A847C00EF7F881216AB900225E0BC
:10126300FD75F00A8475F010A4FFAEF0ED75F00A79
:10127300847C00EF25F0FDEC3EFC7F861216B190D6
:101283000226E0FD75F00A8475F010A4FFAEF0EDC0
:1012930075F00A847C00EF25F0FDEC3EFC7F8412A0
:1012A30016B1900227E0FD75F00A8475F010A4FFD3
:1012B300AEF0ED75F00A847C00EF25F0FDEC3EFC0A
:1012C3007F821216B1900228E0FD75F00A8475F052
:1012D30010A4FFAEF0ED75F00A847C00EF25F0FD5D
:1012E300EC3EFC7F801216B1900229E0FD75F00AF6
:1012F3008475F010A4FFAEF0ED75F00A847C00EF66
:1013030025F0FDEC3EFC7F8A1216B17D807C007FC8
:101313008E0216B19001D7ECF0A3EDF0AB07AA064D
:101323007C007D0A120675A3ECF0A3EDF07C007D32
:101333000AAF03AE02120675A3EEF0A3EFF090011D
:10134300DBE0FEA3E0FF7C007D0A1206759001DB63
:10135300ECF0A3EDF07C007D64AF03AE02120675E2
:10136300A3EEF0A3EFF09001DDE0FEA3E0FF7C002D
:101373007D0A1206759001DDECF0A3EDF0AE02AF2D
:10138300037C037DE81206757C007D0A120675AAAC
:1013930004AB059001D7E0FEA3E0FFEE704AEF2413
:1013A300FE60171460211460302403703BC290D296
:1013B30091D292D2939001D98018D290C291D292B5
:1013C300D2939001DB800BD290D291C292D29390B0
:1013D30001DDE0FEA3E0FF800CD290D291D292C255
:1013E30093AE02AF03121AC622900232E0B4013167
:1013F300E4F587120983900230E004F0700690024E
:101403002FE004F0D3900230E094B890022FE06410
:1014130080948B500302149EE4F0A3F0900232F008
:1014230022D290D291D292D29375A001D2A79002E8
:101433002EE004F0700690022DE004F0A2B6E4332F
:10144300FF900231E06F6013A2B6E433F0900234F0
:10145300E004F07006900233E004F0D390022EE033
:1014630094DC90022DE064809485402F900234E058
:10147300940A900233E06480948050051200268021
:101483000D9002327401F0E490022FF0A3F0E49087
:10149300022DF0A3F0900233F0A3F0227F8C1218F8
:1014A30079EFC4540F75F00AA4FEEF540F2E900287
:1014B30023F07F88121879EFC4540F75F00AA4FE45
:1014C300EF540F2E900224F07F86121879EFC45444
:1014D3000F75F00AA4FEEF540F2E900225F07F84BF
:1014E300121879EFC4540F75F00AA4FEEF540F2EAF
:1014F300900226F07F82121879EFC4540F75F00A18
:10150300A4FEEF540F2E900227F07F80121879EF7C
:10151300C4540F75F00AA4FEEF540F2E900228F066
:101523007F8A121879EFC4540F75F00AA4FEEF54A2
:101533000F2E900229F022787FE4F6D8FD758107FB
:101543000215810219EDE493A3F8E493A34003F693
:101553008001F208DFF48029E493A3F85407240CF4
:10156300C8C333C4540F4420C8834004F4568001D5
:1015730046F6DFE4800B010204081020408090153A
:10158300C6E47E019360BCA3FF543F30E509541FBA
:10159300FEE493A360010ECF54C025E060A840B8D9
:1015A300E493A3FAE493A3F8E493A3C8C582C8CA57
:1015B300C583CAF0A3C8C582C8CAC583CADFE9DE2A
:1015C300E780BE44023B000000004601E500000046
:1015D3000000004601DF000000000000420242005C
:1015E300004A0219C0F9A4B0999282F880904A0285
:1015F300231802040A26140700000041023F014297
:101603000240000042020B000042020500004202B9
:101613000300004202090000420207000042020DDB
:10162300000042022D000042022F0000410232005E
:1016330042023300004102310000AD07ED702090FB
:1016430001E5E0FEA3E0F5EAEEF5FA9001DFE0FE46
:10165300A3E0FF9001E6E02FF09001E5E03EF0ED1E
:10166300B401209001E7E0FEA3E0F5EBEEF5FB907B
:1016730001E1E0FEA3E0FF9001E8E02FF09001E735
:10168300E03EF0EDB402209001E9E0FEA3E0F5ECCA
:10169300EEF5FC9001E3E0FEA3E0FF9001EAE02F0A
:1016A300F09001E9E03EF02225F0FDEC3EFC9001D4
:1016B300D7ECF0A3EDF0AB07D281E4FD7E0074011B
:1016C300A805088005C333CE33CED8F9FFEBF582E6
:1016D300EF558224FF9282D283C2830DEDB408DCDE
:1016E300E4FD7E007401A805088005C333CE33CE24
:1016F300D8F9FF9001D7E05EFEA3E05F4E24FF928E
:1017030082D283C2830DEDB408D8C2812290023FF6
:10171300E0603F30B20630B30320B436900241E0BC
:1017230004F07006900240E004F0900240E0700480
:10173300A3E0640A7031900240F0A3F090023FF0FE
:1017430020B2037F012220B3037F022220B4187F3B
:101753000322A2B2B34010A2B3B3400BA2B4B3406E
:101763000690023F7401F07F0022120D2390023B8A
:10177300120894E4F594F593F592F591F596F595A1
:10178300F5B2F5B1F5B4F5B3F5CAF5C9F5D8F5D9A0
:10179300F5DEF58EF598F59AF5ACF584F5A2F5BA74
:1017A300F5AFF589F5E9F5F943BA80121A599001B5
:1017B300D11208A00001C2009001D57402F07B0190
:1017C300E4FDFF020F54C0E0C0F0C083C082C0D06C
:1017D30075D000C000C001C002C003C004C005C072
:1017E30006C00730D80B53D8FEE4FF12163D12197A
:1017F3006530D90B53D8FD1213EC7F0112163D301F
:10180300DA0353D8FBD007D006D005D004D003D0D9
:1018130002D001D000D0D0D082D083D0F0D0E0323B
:10182300EDB40125EFC4540F2410FDE434FE8D8282
:10183300F583C083C082E0FEEF540FFFF874010804
:101843008002C333D8FC4E8027ED7029EFC4540FB8
:101853002410FDE434FE8D82F583C083C082E0FE54
:10186300EF540FFFF87401088002C333D8FCF45E11
:10187300D082D083F022AD07E4F9ED4401FDD2819B
:10188300E4FB7E007401A803088005C333CE33CE86
:10189300D8F9FFEDF582EF558224FF9282C283D2FD
:1018A300830BEBB408DCE4FBD283C28330820DA844
:1018B300037401088002C333D8FC49F90BEBB40865
:1018C300E7C281C282AF0122C0E0C0F0C083C08200
:1018D300C0D075D000C000C001C002C003C004C0A6
:1018E30005C006C007E58430E1085384FD9001CDAF
:1018F300E4F0E58430E0065384FE120046D007D0BE
:1019030006D005D004D003D002D001D000D0D0D06F
:1019130082D083D0F0D0E032C0E0C083C082C0D098
:1019230075D000C007E59830E1085398FD9001CACF
:10193300E4F0E59830E0205398FEAF99EFB47F12BE
:10194300900244E0FF04F0EFD39414400A75C7609B
:101953008005900244E4F0D007D0D0D082D083D069
:10196300E032E49001D7F0D2A0C2A1C2A0D2A1D2AA
:10197300A0C2A1F0C2A0E4FD7F0E121A2E9001D7DF
:10198300E025E02401F582E43400F583EEF0A3EFD3
:10199300F0D2A09001D7E004F0E0C3948040D5904A
:1019A30000007401F022C2D5E830E70FB2D5E4C3DA
:1019B3009BFBE49AFAE499F9E498F8EC30E717B260
:1019C300D51219DF12079AE4C39BFBE49AFAE49950
:1019D300F9E498F8800312079A30D50DE4C39FFF0A
:1019E300E49EFEE49DFDE49CFC2212005612176D5A
:1019F30075A0FF12121FD290D291D292D2931200ED
:101A0300667D017F321218237D017F331218237DF7
:101A1300017F341218237D017F361218237D017C48
:101A2300007F011210FB12005E80FEA90553BCF07B
:101A3300EF42BC43BC40E5BC30E5FB53BCDFAFBD6C
:101A4300EFFEADBEEDFFAD01A805088005CEC313C3
:101A5300CE13D8F9FF22E47BE07A2EF9F890023B0B
:101A6300E0FCA3E0FDA3E0FEA3E0FF12079A9002CF
:101A730042EEF0A3EFF075DC48E4F5D9D2DE22C0E4
:101A8300E0C083C082E59A30E108539AFD9001CB10
:101A9300E4F0E59A30E003539AFED082D083D0E09D
:101AA30032C0E0C083C082E5AC30E10853ACFD90A6
:101AB30001CCE4F0E5AC30E00353ACFED082D0833C
:101AC300D0E03274192FF58274023EF583E0F5A05D
:011AD30022F0
:00000001FF
